S0170000426173734472756D436F6E74726F6C2E737265630B
S11300000C9434000C9446000C9446000C94460066
S11300100C9446000C9446000C9446000C94460044
S11300200C9446000C9446000C9463010C94460016
S11300300C9446000C944C010C9446000C9446001D
S11300400C9497000C9446000C9446000C944600C3
S11300500C9446000C9446000C9446000C94460004
S11300600C9446000C94460011241FBECFEFD8E038
S1130070DEBFCDBF21E0A0E0B1E001C01D92A631FA
S1130080B207E1F70E9448000C9412020C9400009D
S1130090529A4AE050E06EE170E08AE090E00E94FB
S11300A06E006CE870E082E390E00E941501FFCFDF
S11300B0882379F090910001911108C091E0909308
S11300C00001539A03C01092000153988093B40026
S11300D00895909100019111F6CFF8CF9093050106
S11300E08093040170930701609306015093090102
S11300F04093080183E08093010153985B9893E255
S11301009093B00092E09093B10014BC85BD81E05F
S113011080936E00789408951092010180910401F7
S113012090910501909303018093020108951F9219
S11301300F920FB60F9211242F933F934F935F9317
S11301406F937F938F939F93AF93BF93EF93FF939B
S11301509BB184E089278BB920910101233009F4F4
S113016053C0E2E0F1E08081918101979183808323
S1130170892B91F42F5F20930101233009F441C0AE
S1130180E22FF0E0EE0FFF1FEC5FFE4F80819181C4
S11301909093030180930201809101018130C9F0A1
S11301A018F08230D1F02DC020910201309103016A
S11301B0AFEFB0E00E94E10120910401309105010C
S11301C040E050E00E94C201822F80950E945800B6
S11301D01BC08FEF0E94580017C02091020130917C
S11301E00301AFEFB0E00E94E101209108013091DA
S11301F0090140E050E00E94C201822F0E94580091
S113020003C080E00E945800FF91EF91BF91AF912D
S11302109F918F917F916F915F914F913F912F911A
S11302200F900FBE0F901F901895AB019C01A0E892
S1130230BEE30E94E101BB27A92F982F872F80934B
S1130240120190931301A0931401B09315015093DC
S113025011014093100110920F0110920E0110929F
S11302600A0110920B0110920C0110920D012098BA
S113027028981092800084EC809381001092820070
S1130280109285001092840086B3816286BB81E25D
S113029080936F00789408951F920F920FB60F9277
S11302A011248F939F9380910E0190910F010196D9
S11302B090930F0180930E019F918F910F900FBE29
S11302C00F901F9018951F920F920FB60F92112442
S11302D00F931F932F933F934F935F936F937F934A
S11302E08F939F93AF93BF93EF93FF9320918600D7
S11302F03091870080910E0190910F01A0E0B0E051
S1130300DC0199278827820F931FA11DB11D4091FD
S11303100A0150910B0160910C0170910D018C0147
S11303209D01041B150B260B370B409112015091B4
S11303301301609114017091150104171507260724
S1130340370768F080930A0190930B01A0930C0186
S1130350B0930D01E0911001F09111010995FF9105
S1130360EF91BF91AF919F918F917F916F915F9129
S11303704F913F912F911F910F910F900FBE0F90AE
S11303801F901895052E97FB1EF400940E94D90126
S113039057FD07D00E94F00107FC03D04EF40C94E3
S11303A0D90150954095309521953F4F4F4F5F4F60
S11303B0089590958095709561957F4F8F4F9F4FCD
S11303C00895A29FB001B39FC001A39F700D811D2A
S11303D01124911DB29F700D811D1124911D08954A
S11303E0A1E21A2EAA1BBB1BFD010DC0AA1FBB1F35
S11303F0EE1FFF1FA217B307E407F50720F0A21BA7
S1130400B30BE40BF50B661F771F881F991F1A9413
S113041069F760957095809590959B01AC01BD013D
S10B0420CF010895F894FFCF09
S9030000FC
